:100000000C942A000C943F000C943F000C943F0089
:100010000C943F000C943F000C943F000C943F0064
:100020000C943F000C943F000C943F000C943F0054
:100030000C943F000C943F000C943F000C943F0044
:100040000C943F000C943F000C943F000C943F0034
:100050000C943F0011241FBECFE5D8E0DEBFCDBF1A
:1000600010E0A0E6B0E0E0E0FAE302C005900D92F7
:10007000AA37B107D9F70E9447060C94FE1C0C94CE
:100080000000EF92FF920F931F937B018C0120E001
:1000900030E040E05FE40E94ED0388238CF0C8016B
:1000A000B70120E030E040E05FE40E94B9010E9427
:1000B0004D049B01AC01205030404040504806C0E8
:1000C000C801B7010E944D049B01AC01B901CA01EE
:1000D0001F910F91FF90EF900895A0E0B0E0E3E74B
:1000E000F0E00C94C71CDC012B01FA019C919230CA
:1000F00008F439C1EB018881823008F433C19430AF
:1001000069F4843009F02FC111969C91119789816F
:10011000981709F428C1A1E7B0E025C1843009F49B
:1001200021C18230A9F4923009F01DC19A01AD01BC
:1001300088E0EA010990AE01E90109929E0181502F
:10014000C1F7E201898111969C918923818308C1BD
:10015000923009F407C112962D903C901397EB0151
:100160008A819B811496AD90BD90CD90DC901797BD
:10017000EC80FD800E811F819101281B390BB90194
:1001800037FF04C066277727621B730B6032710547
:100190000CF061C0121613066CF537014801062EEB
:1001A00004C096948794779467940A94D2F721E0D8
:1001B00030E040E050E004C0220F331F441F551FC1
:1001C0006A95D2F721503040404050402E213F21C7
:1001D00040235123211531054105510521F021E02E
:1001E00030E040E050E079018A01E628F72808294C
:1001F00019293CC0232BD1F1260E371E35014601AB
:10020000062E04C096948794779467940A94D2F744
:1002100021E030E040E050E004C0220F331F441FD3
:10022000551F6A95D2F721503040404050402A2156
:100230003B214C215D21211531054105510521F05E
:1002400021E030E040E050E059016A01A628B728DB
:10025000C828D9280BC0821593052CF01C01AA24AC
:10026000BB24650103C0EE24FF24870111969C91F5
:10027000D20111968C91981709F445C0992339F051
:10028000A80197012A193B094C095D0906C0A6017E
:1002900095012E193F09400B510B57FD08C01182E3
:1002A0003382228224833583468357831DC081E0B5
:1002B00081833382228288279927DC01821B930B5A
:1002C000A40BB50B84839583A683B7830DC0220F3F
:1002D000331F441F551F24833583468357838281F0
:1002E000938101979383828324813581468157814D
:1002F000DA01C9010197A109B1098F5F9F4FAF4F83
:10030000BF4328F30BC0918333822282EA0CFB1C8B
:100310000C1D1D1DE482F5820683178383E0808314
:10032000248135814681578157FF1AC0C901AA2708
:1003300097FDA095BA2F81709070A070B0705695FF
:10034000479537952795822B932BA42BB52B848328
:100350009583A683B7838281938101969383828359
:10036000DF0101C0D201CD01CDB7DEB7E2E10C94CF
:10037000E31CA0E2B0E0EFEBF1E00C94D31C698346
:100380007A838B839C832D833E834F835887E9E058
:10039000EE2EF12CEC0EFD1ECE010196B7010E944F
:1003A00076058E010F5E1F4FCE010596B8010E94A3
:1003B00076058A8991E089278A8BC701B801AE0149
:1003C000475E5F4F0E946D000E94A104A096E6E088
:1003D0000C94EF1CA0E2B0E0E0EFF1E00C94D31C31
:1003E00069837A838B839C832D833E834F835887D5
:1003F000F9E0EF2EF12CEC0EFD1ECE010196B701B7
:100400000E9476058E010F5E1F4FCE010596B80142
:100410000E947605C701B801AE01475E5F4F0E949A
:100420006D000E94A104A096E6E00C94EF1CA0E2EF
:10043000B0E0EDE1F2E00C94C71C69837A838B8312
:100440009C832D833E834F835887CE010196BE0146
:10045000675F7F4F0E947605CE010596BE016F5EF5
:100460007F4F0E9476059985923088F08989823085
:10047000C8F0943019F4823051F404C0843029F467
:10048000923081F481E790E0C6C0923049F420E0D8
:100490009A858A89981321E02A87CE010996BBC0E4
:1004A000823049F420E09A858A89981321E02A8BCA
:1004B000CE014196B0C02D843E844F8458886D880B
:1004C0007E888F88988CEE24FF248701AA24BB2481
:1004D000650140E050E060E070E0E0E0F0E0C10184
:1004E00081709070892BE9F0E60CF71C081D191D2E
:1004F0009A01AB012A0D3B1D4C1D5D1D80E090E073
:10050000A0E0B0E0E614F7040805190520F481E046
:1005100090E0A0E0B0E0BA01A901480F591F6A1F9E
:100520007B1FAA0CBB1CCC1CDD1C97FE08C081E005
:1005300090E0A0E0B0E0A82AB92ACA2ADB2A3196C6
:10054000E032F10549F0660C771C881C991C569422
:10055000479437942794C3CFFA85EA892B893C893D
:100560008B859C85280F391F2E5F3F4F17C0CA010E
:1005700081709070892B61F016950795F794E79438
:1005800080E090E0A0E0B0E8E82AF92A0A2B1B2BD3
:1005900076956795579547952F5F3F4F77FDE7CF46
:1005A0000CC0440F551F661F771F17FD4160EE0CEE
:1005B000FF1C001F111F21503040403090E05907B0
:1005C00090E0690790E4790760F32B8F3C8FDB01A3
:1005D000CA018F779070A070B07080349105A1052A
:1005E000B10561F447FD0AC0E114F10401051105EC
:1005F00029F0405C5F4F6F4F7F4F40781A8EFE1797
:1006000011F081E08A8F4D8F5E8F6F8F78A383E02A
:10061000898FCE0149960E94A104A096E2E10C9434
:10062000E31CA8E1B0E0E7E1F3E00C94CF1C6983A0
:100630007A838B839C832D833E834F835887B9E0D5
:10064000EB2EF12CEC0EFD1ECE010196B7010E949F
:1006500076058E010F5E1F4FCE010596B8010E94F0
:1006600076052985223008F47EC03989323010F4AD
:10067000B8017CC08A859A8989278A87243011F03D
:10068000223031F4231709F06EC061E770E06EC0CC
:10069000343039F41D861E861F86188A1C861B86F8
:1006A00004C0323021F484E08987B7015FC02B8514
:1006B0003C858B899C89281B390B3C872B87ED84D3
:1006C000FE840F851889AD88BE88CF88D88CEA143F
:1006D000FB040C051D0540F4EE0CFF1C001F111F50
:1006E000215030403C872B8720E030E040E050E054
:1006F00080E090E0A0E0B0E460E070E0EA14FB0489
:100700000C051D0540F0282B392B4A2B5B2BEA18D2
:10071000FB080C091D09B695A79597958795EE0CD2
:10072000FF1C001F111F6F5F7F4F6F31710531F785
:10073000DA01C9018F779070A070B0708034910594
:10074000A105B10561F427FD0AC0E114F10401051A
:10075000110529F0205C3F4F4F4F5F4F20782D87C8
:100760003E874F87588BBE01675F7F4FCB010E944A
:10077000A1046896EAE00C94EB1CA8E1B0E0E3EC7D
:10078000F3E00C94D31C69837A838B839C832D8341
:100790003E834F83588789E0E82EF12CEC0EFD1E36
:1007A000CE010196B7010E9476058E010F5E1F4FA4
:1007B000CE010596B8010E9476058985823040F009
:1007C0008989823028F0C701B8010E94EE0501C076
:1007D0008FEF6896E6E00C94EF1CA8E1B0E0E3EF41
:1007E000F3E00C94D31C69837A838B839C832D83E1
:1007F0003E834F83588789E0E82EF12CEC0EFD1ED6
:10080000CE010196B7010E9476058E010F5E1F4F43
:10081000CE010596B8010E9476058985823040F0A8
:100820008989823028F0C701B8010E94EE0501C015
:100830008FEF6896E6E00C94EF1CA8E1B0E0E3E2ED
:10084000F4E00C94D31C69837A838B839C832D837F
:100850003E834F83588789E0E82EF12CEC0EFD1E75
:10086000CE010196B7010E9476058E010F5E1F4FE3
:10087000CE010596B8010E9476058985823040F048
:100880008989823028F0C701B8010E94EE0501C0B5
:1008900081E06896E6E00C94EF1CACE0B0E0E3E5A4
:1008A000F4E00C94D71C69837A838B839C83CE01FC
:1008B0000196BE016B5F7F4F0E9476058D8182306D
:1008C00061F1823050F1843021F48E81882351F11E
:1008D0002EC02F81388537FD20C06E812F31310524
:1008E0001CF06623F9F023C08EE190E0821B930B8D
:1008F00029853A854B855C8504C056954795379583
:1009000027958A95D2F76623B1F05095409530959A
:1009100021953F4F4F4F5F4F0EC020E030E040E049
:1009200050E009C02FEF3FEF4FEF5FE704C020E03A
:1009300030E040E050E8B901CA012C96E2E00C94A6
:10094000F31CDF92EF92FF920F931F93FC01E48060
:10095000F58006811781D1808081823048F480E063
:1009600090E0A0E1B0E0E82AF92A0A2B1B2BA5C0F1
:10097000843009F49FC0823021F4EE24FF248701E3
:1009800005C0E114F1040105110519F4E0E0F0E0FF
:1009900096C0628173819FEF623879070CF05BC06B
:1009A00022E83FEF261B370B2A3131052CF020E0DF
:1009B00030E040E050E02AC0B801A701022E04C098
:1009C00076956795579547950A94D2F781E090E020
:1009D000A0E0B0E004C0880F991FAA1FBB1F2A9592
:1009E000D2F70197A109B1098E219F21A023B1233C
:1009F0000097A105B10521F081E090E0A0E0B0E012
:100A00009A01AB01282B392B4A2B5B2BDA01C90148
:100A10008F779070A070B07080349105A105B105FA
:100A200039F427FF09C0205C3F4F4F4F5F4F04C090
:100A3000215C3F4F4F4F5F4FE0E0F0E02030A0E0FF
:100A40003A07A0E04A07A0E45A0710F0E1E0F0E01E
:100A500079018A0127C06038710564F5FB01E1580E
:100A6000FF4FD801C7018F779070A070B0708034AD
:100A70009105A105B10539F4E7FE0DC080E490E0D1
:100A8000A0E0B0E004C08FE390E0A0E0B0E0E80EAA
:100A9000F91E0A1F1B1F17FF05C016950795F7942F
:100AA000E794319687E016950795F794E7948A9531
:100AB000D1F705C0EE24FF248701EFEFF0E06E2FA1
:100AC000679566276795902F9F77D794DD24D794F5
:100AD0008E2F8695492F462B582F5D29B701CA01C5
:100AE0001F910F91FF90EF90DF900895FC01DB01C3
:100AF000408151812281622F6F7770E0221F22276F
:100B0000221F9381892F880F822B282F30E0991F75
:100B10009927991F11969C93119721153105A9F5D5
:100B2000411551056105710511F482E037C082E875
:100B30009FEF13969C938E9312979A01AB0167E0F7
:100B4000220F331F441F551F6A95D1F783E08C9302
:100B50000DC0220F331F441F551F12968D919C917B
:100B60001397019713969C938E931297203080E0F1
:100B7000380780E0480780E4580758F314962D930F
:100B80003D934D935C93179708952F3F310579F46A
:100B9000411551056105710519F484E08C930895A0
:100BA00064FF03C081E08C9312C01C9210C02F57C9
:100BB000304013963C932E93129783E08C9387E0FA
:100BC000440F551F661F771F8A95D1F770641496DE
:100BD0004D935D936D937C93179708951F93DC015C
:100BE000FB019C91923008F447C08081823008F468
:100BF00043C0943051F411961C91843099F5818151
:100C0000682F70E0611B71093FC0843021F0923081
:100C100031F48230B9F18181882389F12DC0119698
:100C20001C9111978230F1F081811817D9F4129636
:100C30002D913C911397828193818217930794F0B1
:100C400028173907BCF014968D919D910D90BC9199
:100C5000A02D2481358146815781281739074A07FD
:100C60005B0718F4112341F00AC082179307A40709
:100C7000B50740F4112319F061E070E005C06FEF93
:100C80007FEF02C060E070E0CB011F9108950F93E9
:100C90001F93DF93CF93CDB7DEB7C354D0400FB6C9
:100CA000F894DEBF0FBECDBF0E944F120E94D50D3B
:100CB0008AE0FE013E96DF01282F1D922A95E9F772
:100CC00088E2FE017896DF01282F1D922A95E9F728
:100CD0001D861C86188619861A861B861F821E8210
:100CE0001D821C8281E08B830E94E40D8A838A81AD
:100CF0008233D1F38D81882309F49DC08A818B32A0
:100D000051F08A818A3239F08A818D3221F08A81CC
:100D10008F3209F090C01D868D858C8782E38A838F
:100D20001CAE1DAE1EAE1FAE8CAD9DADAEADBFAD4B
:100D300088AF99AFAAAFBBAF88AD99ADAAADBBAD37
:100D40008CAB9DABAEABBFAB8CA99DA9AEA9BFA927
:100D500088AB99ABAAABBBAB88A999A9AAA9BBA937
:100D60008CA79DA7AEA7BFA78CA59DA5AEA5BFA527
:100D700088A799A7AAA7BBA788A599A5AAA5BBA537
:100D80008CA39DA3AEA3BFA38CA19DA1AEA1BFA127
:100D900088A399A3AAA3BBA388A199A1AAA1BBA137
:100DA0008C8F9D8FAE8FBF8F8C8D9D8DAE8DBF8DA7
:100DB000888F998FAA8FBB8F1F8A8F898E8B8E8980
:100DC0008D8B8D898C8B8C898B8B8B898A8B8A8977
:100DD000898B8989888B88898F878F858E871F82E9
:100DE0008F818C838C818D838D818E8381E08B8339
:100DF00081E00E94C8108D85882F90E09C01220F11
:100E0000331F220F331FCE010196820F931FFC0167
:100E1000779688859985AA85BB8580839183A283EF
:100E2000B38381E08E8388859985AA85BB85BC01C3
:100E3000CD010E9445188A81A82FB0E02496BFAF4B
:100E4000AEAF249724962EAD3FAD249727303105C1
:100E500009F46EC324968EAD9FAD2497883091051A
:100E6000CCF52496AEADBFAD2497A330B10509F4FF
:100E7000BBC124962EAD3FAD249724303105CCF470
:100E800024968EAD9FAD24978130910509F4DCC086
:100E90002496AEADBFAD2497A230B1050CF03DC194
:100EA00024962EAD3FAD24972115310509F463C07A
:100EB00064C624968EAD9FAD24978530910509F4C4
:100EC00065C22496AEADBFAD2497A630B1050CF037
:100ED000C6C2F3C124962EAD3FAD24972B32310507
:100EE00009F461C424968EAD9FAD24978C32910590
:100EF000CCF42496AEADBFAD2497A930B10509F46A
:100F0000E9C324962EAD3FAD2497293031050CF46A
:100F100078C324968EAD9FAD24978A32910509F44B
:100F200078C42BC62496AEADBFAD2497AF32B105C1
:100F300009F48AC424962EAD3FAD249720333105A1
:100F40004CF424968EAD9FAD24978D32910509F413
:100F500045C413C62496AEADBFAD2497AD33B105DD
:100F600009F48DC424962EAD3FAD2497233431056A
:100F700009F493C502C68D85082F10E08D85882F52
:100F800090E09C01220F331F220F331FCE010196E8
:100F9000820F931FFC01779680819181A281B3819A
:100FA0002AE030E040E050E0BC01CD010E94861C08
:100FB000AB01BC019801220F331F220F331FCE015A
:100FC0000196820F931FFC017796408351836283C1
:100FD00073838D85082F10E08D85882F90E09C010C
:100FE000220F331F220F331FCE010196820F931F52
:100FF000FC01779620813181428153818A81882F3B
:1010000090E0A0E0B0E0BA01A901480F591F6A1FA3
:101010007B1F9801220F331F220F331FCE01019631
:10102000820F931FFC017796408351836283738301
:1010300081E08E838A81882F90E0A0E0B0E0BC013F
:10104000CD010E94451899C58D85082F10E08D852A
:10105000882F90E09C01220F331F220F331FCE01F7
:101060000196820F931FFC01779680819181A28166
:10107000B3812AE030E040E050E0BC01CD010E94A5
:10108000861CAB01BC019801220F331F220F331FB6
:10109000CE010196820F931FFC0177964083518306
:1010A000628373838D85082F10E08D85882F90E0F3
:1010B0009C01220F331F220F331FCE010196820F96
:1010C000931FFC01779620813181428153818A816F
:1010D000882F90E0A0E0B0E0BA01A901480F591FA5
:1010E0006A1F7B1F9801220F331F220F331FCE016F
:1010F0000196820F931FFC01779640835183628390
:10110000738381E08E838A81882F90E0A0E0B0E035
:10111000BC01CD010E94451830C58D85082F10E017
:101120008D85882F90E09C01220F331F220F331FE3
:10113000CE010196820F931FFC01779680819181E9
:10114000A281B3812AE030E040E050E0BC01CD0153
:101150000E94861CAB01BC019801220F331F220F95
:10116000331FCE010196820F931FFC0177964083B7
:101170005183628373838D85082F10E08D85882FBE
:1011800090E09C01220F331F220F331FCE010196E6
:10119000820F931FFC017796208131814281538118
:1011A0008A81882F90E0A0E0B0E0BA01A901480F41
:1011B000591F6A1F7B1F9801220F331F220F331FF5
:1011C000CE010196820F931FFC01779640835183D5
:1011D000628373838A81882F90E0A0E0B0E0BC0135
:1011E000CD010E944518C9C48D85082F10E08D855A
:1011F000882F90E09C01220F331F220F331FCE0156
:101200000196820F931FFC01779680819181A281C4
:10121000B3812AE030E040E050E0BC01CD010E9403
:10122000861CAB01BC019801220F331F220F331F14
:10123000CE010196820F931FFC0177964083518364
:10124000628373838D85082F10E08D85882F90E051
:101250009C01220F331F220F331FCE010196820FF4
:10126000931FFC01779620813181428153818A81CD
:10127000882F90E0A0E0B0E0BA01A901480F591F03
:101280006A1F7B1F9801220F331F220F331FCE01CD
:101290000196820F931FFC017796408351836283EE
:1012A000738381E08E838A81882F90E0A0E0B0E094
:1012B000BC01CD010E94451860C48D85082F10E047
:1012C0008D85882F90E09C01220F331F220F331F42
:1012D000CE010196820F931FFC0177968081918148
:1012E000A281B3812AE030E040E050E0BC01CD01B2
:1012F0000E94861CAB01BC019801220F331F220FF4
:10130000331FCE010196820F931FFC017796408315
:101310005183628373838D85082F10E08D85882F1C
:1013200090E09C01220F331F220F331FCE01019644
:10133000820F931FFC017796208131814281538176
:101340008A81882F90E0A0E0B0E0BA01A901480F9F
:10135000591F6A1F7B1F9801220F331F220F331F53
:10136000CE010196820F931FFC0177964083518333
:101370006283738381E08E838A81882F90E0A0E06E
:10138000B0E0BC01CD010E944518F7C38D85082F40
:1013900010E08D85882F90E09C01220F331F220FD3
:1013A000331FCE010196820F931FFC017796808137
:1013B0009181A281B3812AE030E040E050E0BC019D
:1013C000CD010E94861CAB01BC019801220F331F86
:1013D000220F331FCE010196820F931FFC017796D7
:1013E00040835183628373838D85082F10E08D8540
:1013F000882F90E09C01220F331F220F331FCE0154
:101400000196820F931FFC017796208131814281E2
:1014100053818A81882F90E0A0E0B0E0BA01A90151
:10142000480F591F6A1F7B1F9801220F331F220F7D
:10143000331FCE010196820F931FFC0177964083E4
:1014400051836283738381E08E838A81882F90E049
:10145000A0E0B0E0BC01CD010E9445188EC38D858F
:10146000082F10E08D85882F90E09C01220F331FFC
:10147000220F331FCE010196820F931FFC01779636
:1014800080819181A281B3812AE030E040E050E088
:10149000BC01CD010E94861CAB01BC019801220F4A
:1014A000331F220F331FCE010196820F931FFC01C1
:1014B000779640835183628373838D85082F10E074
:1014C0008D85882F90E09C01220F331F220F331F40
:1014D000CE010196820F931FFC0177962081318106
:1014E000428153818A81882F90E0A0E0B0E0BA0168
:1014F000A901480F591F6A1F7B1F9801220F331F34
:10150000220F331FCE010196820F931FFC017796A5
:10151000408351836283738381E08E838A81882F25
:1015200090E0A0E0B0E0BC01CD010E94451825C3C9
:101530008D85082F10E08D85882F90E09C01220F6B
:10154000331F220F331FCE010196820F931FFC0120
:10155000779680819181A281B3812AE030E040E0DA
:1015600050E0BC01CD010E94861CAB01BC0198017A
:10157000220F331F220F331FCE010196820F931FBC
:10158000FC01779640835183628373838D85082F96
:1015900010E08D85882F90E09C01220F331F220FD1
:1015A000331FCE010196820F931FFC017796208195
:1015B0003181428153818A81882F90E0A0E0B0E0A0
:1015C000BA01A901480F591F6A1F7B1F9801220FFA
:1015D000331F220F331FCE010196820F931FFC0190
:1015E0007796408351836283738381E08E838A81FF
:1015F000882F90E0A0E0B0E0BC01CD010E9445182A
:10160000BCC28D85082F10E08D85882F90E09C014D
:10161000220F331F220F331FCE010196820F931F1B
:10162000FC01779680819181A281B3812AE030E02C
:1016300040E050E0BC01CD010E94861CAB01BC0122
:101640009801220F331F220F331FCE010196820F04
:10165000931FFC01779640835183628373838D854A
:10166000082F10E08D85882F90E09C01220F331FFA
:10167000220F331FCE010196820F931FFC01779634
:1016800020813181428153818A81882F90E0A0E0BE
:10169000B0E0BA01A901480F591F6A1F7B1F9801CA
:1016A000220F331F220F331FCE010196820F931F8B
:1016B000FC017796408351836283738381E08E833C
:1016C0008A81882F90E0A0E0B0E0BC01CD010E94AB
:1016D000451853C28D85082F10E08D85882F90E026
:1016E0009C01220F331F220F331FCE010196820F60
:1016F000931FFC01779680819181A281B3812AE0BA
:1017000030E040E050E0BC01CD010E94861CAB01FE
:10171000BC019801220F331F220F331FCE01019607
:10172000820F931FFC0177964083518362837383FA
:101730008D85082F10E08D85882F90E09C01220F69
:10174000331F220F331FCE010196820F931FFC011E
:10175000779620813181428153818A81882F90E060
:10176000A0E0B0E0BA01A901480F591F6A1F7B1F12
:101770009801220F331F220F331FCE010196820FD3
:10178000931FFC017796408351836283738381E0CA
:101790008E838A81882F90E0A0E0B0E0BC01CD016B
:1017A0000E944518EAC18E818823A9F08C85282FD4
:1017B00030E0CE010E96FC01E20FF31F8BE2808336
:1017C0008C858F5F8C878D858F5F8D871E828BE2E6
:1017D0000E94410FD2C181E08E83CFC18E818823C8
:1017E000A9F08C85282F30E0CE010E96FC01E20F87
:1017F000F31F8DE280838C858F5F8C878D858F5F53
:101800008D871E828DE20E94410FB7C181E08E83D9
:10181000B4C18E818823A9F08C85282F30E0CE01B9
:101820000E96FC01E20FF31F8AE280838C858F5FA6
:101830008C878D858F5F8D871E828AE20E94410F83
:101840009CC181E08E8399C18E818823A9F08C850B
:10185000282F30E0CE010E96FC01E20FF31F8FE23D
:1018600080838C858F5F8C878D858F5F8D871E82AF
:101870008FE20E94410F81C181E08E837EC18DE3A2
:101880000E94410F888D998DAA8DBB8D888799877D
:10189000AA87BB871982F3C08981282F30E0CE0147
:1018A0000E96FC01E20FF31F8081A82FB0E0229674
:1018B000BFAFAEAF229722962EAD3FAD22972B320F
:1018C000310501F122968EAD9FAD22978C329105A4
:1018D0004CF42296AEADBFAD2297AA32B10509F401
:1018E00051C0CAC022962EAD3FAD22972D32310590
:1018F00049F122968EAD9FAD22978F32910509F462
:1019000063C0BAC08981882F90E001969C01220FA4
:10191000331F220F331FCE010196820F931FFC014C
:101920007796208131814281538188859985AA8566
:10193000BB85820F931FA41FB51F88879987AA872D
:10194000BB879AC08981882F90E001969C01220F65
:10195000331F220F331FCE010196820F931FFC010C
:101960007796208131814281538188859985AA8526
:10197000BB85821B930BA40BB50B88879987AA871D
:10198000BB877AC08981882F90E001969C01220F45
:10199000331F220F331FCE010196820F931FFC01CC
:1019A0007796208131814281538188859985AA85E6
:1019B000BB85BC01CD010E94861CDC01CB01888760
:1019C0009987AA87BB8758C08D85882F90E09C0196
:1019D000220F331F220F331FCE010196820F931F58
:1019E000FC01779680819181A281B3810097A10546
:1019F000B10559F481E00E94C81080E690E00E9491
:101A000001181C8281E08F8337C08D85882F90E07C
:101A10009C01220F331F220F331FCE010196820F2C
:101A2000931FFC01779680819181A281B3810097F9
:101A3000A105B10509F18981882F90E001969C01EB
:101A4000220F331F220F331FCE010196820F931FE7
:101A5000FC01779620813181428153818885998567
:101A6000AA85BB85BC01CD010E94A51CDA01C90174
:101A700088879987AA87BB8789818F5F89839981A6
:101A80008C85891708F008CF8F81882309F075C0ED
:101A900081E08D8381E08C8370C01D868D858C876D
:101AA00082E38A831CAE1DAE1EAE1FAE8CAD9DAD13
:101AB000AEADBFAD88AF99AFAAAFBBAF88AD99ADA2
:101AC000AAADBBAD8CAB9DABAEABBFAB8CA99DA99A
:101AD000AEA9BFA988AB99ABAAABBBAB88A999A9A2
:101AE000AAA9BBA98CA79DA7AEA7BFA78CA59DA59A
:101AF000AEA5BFA588A799A7AAA7BBA788A599A5A2
:101B0000AAA5BBA58CA39DA3AEA3BFA38CA19DA199
:101B1000AEA1BFA188A399A3AAA3BBA388A199A1A1
:101B2000AAA1BBA18C8F9D8FAE8FBF8F8C8D9D8DF9
:101B3000AE8DBF8D888F998FAA8FBB8F1F8A8F899B
:101B40008E8B8E898D8B8D898C8B8C898B8B8B89E1
:101B50008A8B8A89898B8989888B88898F878F85E9
:101B60008E871F828F818C838C818D838D818E8364
:101B700081E08B8381E00E94C8108B818F5F8B8313
:101B80008C81882369F088859985AA85BB85BC01ED
:101B9000CD010E94451882E061E00E942A181C8253
:101BA0000E94E40D8823E1F39FC8DF93CF93CDB764
:101BB000DEB780E060EF0E94871B80E06FEF0E943D
:101BC000C81BCF91DF910895DF93CF93CDB7DEB7D8
:101BD00065970FB6F894DEBF0FBECDBF82E3898B49
:101BE000188A1F861F86A8C08F85982F9C5F80E06B
:101BF000692F40E00E94871A188A8FC080E06889A8
:101C00000E940E1A8A8B8A89882361F48889882F1A
:101C100090E0880F991F880F991F982F8F85890F43
:101C20008F5F898B80E068890E940E1A8823D1F328
:101C300080E090E0A0EAB0E48B879C87AD87BE8708
:101C40006B857C858D859E8520E030E04AEF54E4ED
:101C50000E941702DC01CB018F839887A987BA877E
:101C60006F81788589859A8520E030E040E85FE3E0
:101C70000E941D0488232CF481E090E09E838D83D4
:101C80003FC06F81788589859A8520E03FEF4FE7D7
:101C900057E40E94BD0318164CF56B857C858D8535
:101CA0009E8520E030E040E251E40E941702DC0112
:101CB000CB01BC01CD010E944100DC01CB019E8320
:101CC0008D830FC088EC90E09C838B838B819C81FB
:101CD0000197F1F79C838B838D819E8101979E8371
:101CE0008D838D819E81009769F714C06F817885FF
:101CF00089859A850E944100DC01CB019E838D83FA
:101D00008D819E819A83898389819A810197F1F7D8
:101D10009A83898388898F5F888B8889843008F4C7
:101D20006DCF8F85982F9C5F80E0692F41E00E94E6
:101D3000871A8F858F5F8F878F85843008F454CF03
:101D40008989282F30E03D8B2C8B8C899D898830A8
:101D5000910509F470C02C893D89293031055CF565
:101D60008C899D898430910509F459C02C893D895D
:101D7000253031059CF48C899D898230910509F4C8
:101D800048C02C893D89233031050CF045C08C8931
:101D90009D898130910509F439C067C02C893D893E
:101DA0002630310509F441C08C899D898730910521
:101DB0000CF03EC037C02C893D892C30310509F428
:101DC00046C08C899D898D3091055CF42C893D89B4
:101DD0002A303105B1F18C899D898B309105A4F5AC
:101DE0002DC02C893D892E303105B9F18C899D8912
:101DF0008E3091057CF12C893D892F30310579F1A8
:101E00008C899D898031910569F12FC091E09B8B70
:101E10002EC022E02B8B2BC033E03B8B28C08BE203
:101E20008B8B25C094E09B8B22C025E02B8B1FC0A1
:101E300036E03B8B1CC08DE28B8B19C097E09B8BEF
:101E400016C028E02B8B13C039E03B8B10C08AE210
:101E50008B8B0DC093E49B8B0AC01B8A08C02DE3BB
:101E60002B8B05C03FE23B8B02C082E38B8B8B89BF
:101E700065960FB6F894DEBF0FBECDBFCF91DF9150
:101E80000895DF93CF93CDB7DEB7AB970FB6F89435
:101E9000DEBF0FBECDBF8BA781E060E041E00E94B6
:101EA000871A81E061E040E00E94871A82E06BA51A
:101EB0000E94C81B81E062E040E00E94871A80E037
:101EC00090E0A0E8BFE38FA398A7A9A7BAA76FA146
:101ED00078A589A59AA520E030E04AEF54E40E9455
:101EE0001702DC01CB018BA39CA3ADA3BEA36BA106
:101EF0007CA18DA19EA120E030E040E85FE30E943C
:101F00001D0488232CF481E090E09AA389A33FC0AC
:101F10006BA17CA18DA19EA120E03FEF4FE757E48C
:101F20000E94BD0318164CF56FA178A589A59AA546
:101F300020E030E040E251E40E941702DC01CB01D6
:101F4000BC01CD010E944100DC01CB019AA389A311
:101F50000FC088EC90E098A38F8F8F8D98A1019788
:101F6000F1F798A38F8F89A19AA101979AA389A3CA
:101F700089A19AA1009769F714C06BA17CA18DA1DA
:101F80009EA10E944100DC01CB019AA389A389A1F3
:101F90009AA19E8F8D8F8D8D9E8D0197F1F79E8FCB
:101FA0008D8F81E062E041E00E94871A80E090E03E
:101FB000A0E8BFE3898F9A8FAB8FBC8F698D7A8D34
:101FC0008B8D9C8D20E030E04AEF54E40E94170294
:101FD000DC01CB018D8B9E8BAF8BB88F6D897E8999
:101FE0008F89988D20E030E040E85FE30E941D0477
:101FF00088232CF481E090E09C8B8B8B3FC06D8913
:102000007E898F89988D20E03FEF4FE757E40E944B
:10201000BD0318164CF5698D7A8D8B8D9C8D20E053
:1020200030E040E251E40E941702DC01CB01BC0128
:10203000CD010E944100DC01CB019C8B8B8B0FC03A
:1020400088EC90E09A8B898B89899A890197F1F7BE
:102050009A8B898B8B899C8901979C8B8B8B8B8925
:102060009C89009769F714C06D897E898F89988D46
:102070000E944100DC01CB019C8B8B8B8B899C895E
:10208000988B8F878F8598890197F1F7988B8F8729
:1020900081E062E040E00E94871A80E090E0A0E0EA
:1020A000B0E48B879C87AD87BE876B857C858D85EB
:1020B0009E8520E030E04AEF54E40E941702DC01E4
:1020C000CB018F839887A987BA876F8178858985A7
:1020D0009A8520E030E040E85FE30E941D048823F9
:1020E0002CF481E090E09E838D833FC06F817885E2
:1020F00089859A8520E03FEF4FE757E40E94BD03B2
:1021000018164CF56B857C858D859E8520E030E02A
:1021100040E251E40E941702DC01CB01BC01CD0179
:102120000E944100DC01CB019E838D830FC088ECAF
:1021300090E09C838B838B819C810197F1F79C833A
:102140008B838D819E8101979E838D838D819E815E
:10215000009769F714C06F81788589859A850E94F8
:102160004100DC01CB019E838D838D819E819A830A
:10217000898389819A810197F1F79A838983AB9644
:102180000FB6F894DEBF0FBECDBFCF91DF9108959B
:10219000DF93CF93CDB7DEB7AB970FB6F894DEBF22
:1021A0000FBECDBF8BA781E060E040E00E94871AA0
:1021B00081E061E040E00E94871A82E06BA50E9406
:1021C000C81B81E062E040E00E94871A80E090E056
:1021D000A0E8BFE38FA398A7A9A7BAA76FA178A586
:1021E00089A59AA520E030E04AEF54E40E94170246
:1021F000DC01CB018BA39CA3ADA3BEA36BA17CA1EF
:102200008DA19EA120E030E040E85FE30E941D0424
:1022100088232CF481E090E09AA389A33FC06BA1AE
:102220007CA18DA19EA120E03FEF4FE757E40E94E3
:10223000BD0318164CF56FA178A589A59AA520E0D5
:1022400030E040E251E40E941702DC01CB01BC0106
:10225000CD010E944100DC01CB019AA389A30FC0EC
:1022600088EC90E098A38F8F8F8D98A10197F1F75C
:1022700098A38F8F89A19AA101979AA389A389A175
:102280009AA1009769F714C06BA17CA18DA19EA1B2
:102290000E944100DC01CB019AA389A389A19AA1E4
:1022A0009E8F8D8F8D8D9E8D0197F1F79E8F8D8FD7
:1022B00081E062E041E00E94871A80E090E0A0E8BF
:1022C000BFE3898F9A8FAB8FBC8F698D7A8D8B8D91
:1022D0009C8D20E030E04AEF54E40E941702DC01BC
:1022E000CB018D8B9E8BAF8BB88F6D897E898F894B
:1022F000988D20E030E040E85FE30E941D048823D1
:102300002CF481E090E09C8B8B8B3FC06D897E89A3
:102310008F89988D20E03FEF4FE757E40E94BD037F
:1023200018164CF5698D7A8D8B8D9C8D20E030E0F0
:1023300040E251E40E941702DC01CB01BC01CD0157
:102340000E944100DC01CB019C8B8B8B0FC088EC81
:1023500090E09A8B898B89899A890197F1F79A8BFA
:10236000898B8B899C8901979C8B8B8B8B899C8912
:10237000009769F714C06D897E898F89988D0E94B6
:102380004100DC01CB019C8B8B8B8B899C89988BCA
:102390008F878F8598890197F1F7988B8F8781E0D8
:1023A00062E040E00E94871A80E090E0A0E0B0E4A4
:1023B0008B879C87AD87BE876B857C858D859E8549
:1023C00020E030E04AEF54E40E941702DC01CB0128
:1023D0008F839887A987BA876F81788589859A8541
:1023E00020E030E040E85FE30E941D0488232CF4E5
:1023F00081E090E09E838D833FC06F8178858985E1
:102400009A8520E03FEF4FE757E40E94BD0318167E
:102410004CF56B857C858D859E8520E030E040E223
:1024200051E40E941702DC01CB01BC01CD010E94E6
:102430004100DC01CB019E838D830FC088EC90E0CE
:102440009C838B838B819C810197F1F79C838B8389
:102450008D819E8101979E838D838D819E810097C2
:1024600069F714C06F81788589859A850E9441003B
:10247000DC01CB019E838D838D819E819A8389832C
:1024800089819A810197F1F79A838983AB960FB678
:10249000F894DEBF0FBECDBFCF91DF9108950F93AB
:1024A0001F93DF93CF93CDB7DEB7CC54D0400FB698
:1024B000F894DEBF0FBECDBF82E06FEF0E94871B96
:1024C00081E060E041E00E940E1981E061E041E0BE
:1024D0000E940E1981E062E041E00E940E19FE01A7
:1024E000E75BFF4F80E090E0A0E2B2E4808391835D
:1024F000A283B3838E010B5B1F4FFE01E75BFF4F8F
:10250000608171818281938120E030E04AEF54E460
:102510000E941702DC01CB01F80180839183A28322
:10252000B383FE01EB5BFF4F6081718182819381F8
:1025300020E030E040E85FE30E941D04882344F47B
:10254000FE01ED5BFF4F81E090E09183808364C0EA
:10255000FE01EB5BFF4F608171818281938120E0FE
:102560003FEF4FE757E40E94BD0318160CF043C03D
:10257000FE01E75BFF4F608171818281938120E0E2
:1025800030E040E251E40E941702DC01CB018E01F1
:102590000D5B1F4FBC01CD010E944100DC01CB014E
:1025A000F801918380831FC0FE01EF5BFF4F88EC31
:1025B00090E091838083FE01EF5BFF4F80819181EA
:1025C0000197F1F7FE01EF5BFF4F91838083DE01FE
:1025D000AD5BBF4FFE01ED5BFF4F808191810197A5
:1025E00011969C938E93FE01ED5BFF4F808191814C
:1025F0000097D1F624C08E010D5B1F4FFE01EB5BEF
:10260000FF4F60817181828193810E944100DC01D2
:10261000CB01F80191838083FE01ED5BFF4F808148
:102620009181FE01FF9691838083FE01FF96808158
:1026300091810197F1F7FE01FF969183808388E3F2
:102640000E94C81080E090E0A4E3B2E48BAF9CAF9E
:10265000ADAFBEAF6BAD7CAD8DAD9EAD2BEA3AEAB2
:102660004AE250E40E941702DC01CB018FAB98AF25
:10267000A9AFBAAF6FA978AD89AD9AAD20E030E0CF
:1026800040E85FE30E941D0488231CF481E08EABC8
:1026900091C06FA978AD89AD9AAD20E030E04FE7E9
:1026A00053E40E94BD0318160CF07BC06BAD7CADEB
:1026B0008DAD9EAD20E030E04AE754E40E94110366
:1026C000DC01CB018AAB9BABACABBDAB6AA97BA9F0
:1026D0008CA99DA920E030E04AEF54E40E94170243
:1026E000DC01CB018EA79FA7A8ABB9AB6EA57FA5D8
:1026F00088A999A920E030E040E85FE30E941D042A
:1027000088232CF481E090E09DA78CA73FC06EA5A4
:102710007FA588A999A920E03FEF4FE757E40E94E1
:10272000BD0318164CF56AA97BA98CA99DA920E0C8
:1027300030E040E251E40E941702DC01CB01BC0111
:10274000CD010E944100DC01CB019DA78CA70FC0E9
:1027500088EC90E09BA78AA78AA59BA50197F1F733
:102760009BA78AA78CA59DA501979DA78CA78CA543
:102770009DA5009769F724C06EA57FA588A999A992
:102780000E944100DC01CB019DA78CA78CA59DA5D3
:1027900099A788A788A599A50197F1F799A788A770
:1027A0000FC06FA978AD89AD9AAD0E944100DC01E0
:1027B000CB018EAB8EA98FA38FA18A95F1F78FA342
:1027C0008EE00E94C81080E090E0A4E3B2E48BA306
:1027D0009CA3ADA3BEA36BA17CA18DA19EA12BEA5E
:1027E0003AEA4AE250E40E941702DC01CB018F8FE3
:1027F00098A3A9A3BAA36F8D78A189A19AA120E07B
:1028000030E040E85FE30E941D0488231CF481E06F
:102810008E8F91C06F8D78A189A19AA120E030E0C0
:102820004FE753E40E94BD0318160CF07BC06BA168
:102830007CA18DA19EA120E030E04AE754E40E94F3
:102840001103DC01CB018A8F9B8FAC8FBD8F6A8D0A
:102850007B8D8C8D9D8D20E030E04AEF54E40E940A
:102860001702DC01CB018E8B9F8BA88FB98F6E89ED
:102870007F89888D998D20E030E040E85FE30E94F9
:102880001D0488232CF481E090E09D8B8C8B3FC04D
:102890006E897F89888D998D20E03FEF4FE757E45F
:1028A0000E94BD0318164CF56A8D7B8D8C8D9D8D15
:1028B00020E030E040E251E40E941702DC01CB014D
:1028C000BC01CD010E944100DC01CB019D8B8C8BB2
:1028D0000FC088EC90E09B8B8A8B8A899B8901973B
:1028E000F1F79B8B8A8B8C899D8901979D8B8C8BB3
:1028F0008C899D89009769F724C06E897F89888DAE
:10290000998D0E944100DC01CB019D8B8C8B8C89C1
:102910009D89998B888B888999890197F1F7998B83
:10292000888B0FC06F8D78A189A19AA10E94410068
:10293000DC01CB018E8F8E8D8F878F858A95F1F785
:102940008F8781E00E94C81080E090E0A0E0B0E4B2
:102950008B879C87AD87BE876B857C858D859E85A3
:1029600020E030E04AEF54E40E941702DC01CB0182
:102970008F839887A987BA876F81788589859A859B
:1029800020E030E040E85FE30E941D0488232CF43F
:1029900081E090E09E838D833FC06F81788589853B
:1029A0009A8520E03FEF4FE757E40E94BD031816D9
:1029B0004CF56B857C858D859E8520E030E040E27E
:1029C00051E40E941702DC01CB01BC01CD010E9441
:1029D0004100DC01CB019E838D830FC088EC90E029
:1029E0009C838B838B819C810197F1F79C838B83E4
:1029F0008D819E8101979E838D838D819E8100971D
:102A000069F714C06F81788589859A850E94410095
:102A1000DC01CB019E838D838D819E819A83898386
:102A200089819A810197F1F79A838983C45BDF4F8B
:102A30000FB6F894DEBF0FBECDBFCF91DF911F91CF
:102A40000F9108950F931F93DF93CF93CDB7DEB708
:102A5000CC54D0400FB6F894DEBF0FBECDBF82E09D
:102A60006FEF0E94871B81E060E041E00E940E1939
:102A700081E061E041E00E940E1981E062E041E006
:102A80000E940E19FE01E75BFF4F80E090E0A0E29C
:102A9000B2E480839183A283B3838E010B5B1F4FCB
:102AA000FE01E75BFF4F608171818281938120E0AD
:102AB00030E04AEF54E40E941702DC01CB01F80138
:102AC00080839183A283B383FE01EB5BFF4F608120
:102AD00071818281938120E030E040E85FE30E94D1
:102AE0001D04882344F4FE01ED5BFF4F81E090E07C
:102AF0009183808364C0FE01EB5BFF4F6081718135
:102B00008281938120E03FEF4FE757E40E94BD03AD
:102B100018160CF043C0FE01E75BFF4F6081718126
:102B20008281938120E030E040E251E40E9417026C
:102B3000DC01CB018E010D5B1F4FBC01CD010E945A
:102B40004100DC01CB01F801918380831FC0FE01AD
:102B5000EF5BFF4F88EC90E091838083FE01EF5B99
:102B6000FF4F808191810197F1F7FE01EF5BFF4FED
:102B700091838083DE01AD5BBF4FFE01ED5BFF4FB4
:102B800080819181019711969C938E93FE01ED5B5C
:102B9000FF4F808191810097D1F624C08E010D5B9B
:102BA0001F4FFE01EB5BFF4F60817181828193813A
:102BB0000E944100DC01CB01F80191838083FE017A
:102BC000ED5BFF4F80819181FE01FF9691838083B1
:102BD000FE01FF96808191810197F1F7FE01FF963A
:102BE0009183808380E20E94C81080E20E94C81016
:102BF00080EC0E94C81080E090E0A4E3B2E48BAFC8
:102C00009CAFADAFBEAF6BAD7CAD8DAD9EAD2BEAD5
:102C10003AEA4AE250E40E941702DC01CB018FAB92
:102C200098AFA9AFBAAF6FA978AD89AD9AAD20E0E2
:102C300030E040E85FE30E941D0488231CF481E03B
:102C40008EAB91C06FA978AD89AD9AAD20E030E030
:102C50004FE753E40E94BD0318160CF07BC06BAD28
:102C60007CAD8DAD9EAD20E030E04AE754E40E949B
:102C70001103DC01CB018AAB9BABACABBDAB6AA94A
:102C80007BA98CA99DA920E030E04AEF54E40E9482
:102C90001702DC01CB018EA79FA7A8ABB9AB6EA52D
:102CA0007FA588A999A920E030E040E85FE30E9471
:102CB0001D0488232CF481E090E09DA78CA73FC0E1
:102CC0006EA57FA588A999A920E03FEF4FE757E4BB
:102CD0000E94BD0318164CF56AA97BA98CA99DA971
:102CE00020E030E040E251E40E941702DC01CB0119
:102CF000BC01CD010E944100DC01CB019DA78CA746
:102D00000FC088EC90E09BA78AA78AA59BA5019796
:102D1000F1F79BA78AA78CA59DA501979DA78CA7D6
:102D20008CA59DA5009769F724C06EA57FA588A9ED
:102D300099A90E944100DC01CB019DA78CA78CA51D
:102D40009DA599A788A788A599A50197F1F799A7A7
:102D500088A70FC06FA978AD89AD9AAD0E944100D8
:102D6000DC01CB018EAB8EA98FA38FA18A95F1F7E1
:102D70008FA380E00E94C81080EF0E94C81080E0FE
:102D800090E0A4E3B2E48BA39CA3ADA3BEA36BA18C
:102D90007CA18DA19EA12BEA3AEA4AE250E40E946E
:102DA0001702DC01CB018F8F98A3A9A3BAA36F8D63
:102DB00078A189A19AA120E030E040E85FE30E9479
:102DC0001D0488231CF481E08E8F91C06F8D78A143
:102DD00089A19AA120E030E04FE753E40E94BD03AF
:102DE00018160CF07BC06BA17CA18DA19EA120E0E8
:102DF00030E04AE754E40E941103DC01CB018A8FE2
:102E00009B8FAC8FBD8F6A8D7B8D8C8D9D8D20E0CF
:102E100030E04AEF54E40E941702DC01CB018E8BB4
:102E20009F8BA88FB98F6E897F89888D998D20E0BF
:102E300030E040E85FE30E941D0488232CF481E029
:102E400090E09D8B8C8B3FC06E897F89888D998D9A
:102E500020E03FEF4FE757E40E94BD0318164CF502
:102E60006A8D7B8D8C8D9D8D20E030E040E251E4B9
:102E70000E941702DC01CB01BC01CD010E94410080
:102E8000DC01CB019D8B8C8B0FC088EC90E09B8B81
:102E90008A8B8A899B890197F1F79B8B8A8B8C8916
:102EA0009D8901979D8B8C8B8C899D89009769F7F3
:102EB00024C06E897F89888D998D0E944100DC0134
:102EC000CB019D8B8C8B8C899D89998B888B888974
:102ED00099890197F1F7998B888B0FC06F8D78A135
:102EE00089A19AA10E944100DC01CB018E8F8E8DB9
:102EF0008F878F858A95F1F78F8780E00E94C810B1
:102F000080E10E94C81080E090E0A0E2B1E48B87ED
:102F10009C87AD87BE876B857C858D859E8520E0EF
:102F200030E04AEF54E40E941702DC01CB018F83AA
:102F30009887A987BA876F81788589859A8520E0E7
:102F400030E040E85FE30E941D0488232CF481E018
:102F500090E09E838D833FC06F81788589859A85B7
:102F600020E03FEF4FE757E40E94BD0318164CF5F1
:102F70006B857C858D859E8520E030E040E251E4C4
:102F80000E941702DC01CB01BC01CD010E9441006F
:102F9000DC01CB019E838D830FC088EC90E09C8385
:102FA0008B838B819C810197F1F79C838B838D812F
:102FB0009E8101979E838D838D819E81009769F705
:102FC00014C06F81788589859A850E944100DC0153
:102FD000CB019E838D838D819E819A838983898194
:102FE0009A810197F1F79A838983C45BDF4F0FB60B
:102FF000F894DEBF0FBECDBFCF91DF911F910F912F
:103000000895DF93CF9300D00F92CDB7DEB79B83A7
:103010008A8319820EC08981282F30E08A819B81A2
:10302000FC01E20FF31F80810E94410F89818F5FB5
:1030300089838981282F30E08A819B81FC01E20FFE
:10304000F31F8081882339F70F900F900F90CF9155
:10305000DF910895DF93CF9300D0CDB7DEB789839A
:103060006A838981882329F48A8180580E94C81044
:1030700007C08981813021F48A8180540E94C81060
:103080000F900F90CF91DF910895EF92FF920F93E1
:103090001F93DF93CF93CDB7DEB728970FB6F89481
:1030A000DEBF0FBECDBF6D837E838F8398878D81FA
:1030B0009E81AF81B8850097A105B10521F480E319
:1030C0000E94410F79C081E090E0A0E0B0E08983E8
:1030D0009A83AB83BC8336C089819A81AB81BC81E2
:1030E0002AE030E040E050E0BC01CD010E94861CA7
:1030F0007B018C018D819E81AF81B8852AE030E013
:1031000040E050E0BC01CD010E94A51CDC01CB01D8
:103110008E0D9F1DA01FB11F89839A83AB83BC8333
:103120008D819E81AF81B8852AE030E040E050E09B
:10313000BC01CD010E94A51CDA01C9018D839E83CB
:10314000AF83B8878D819E81AF81B8850097A10537
:10315000B10511F628C089819A81AB81BC812AE032
:1031600030E040E050E0BC01CD010E94A51CDC0134
:10317000CB018D839E83AF83B8878D81805D0E9454
:10318000410F89819A81AB81BC812AE030E040E027
:1031900050E0BC01CD010E94A51CDA01C901898360
:1031A0009A83AB83BC8389819A81AB81BC81823055
:1031B0009105A105B10578F628960FB6F894DEBF03
:1031C0000FBECDBFCF91DF911F910F91FF90EF9078
:1031D0000895DF93CF93CDB7DEB780E40E94C81087
:1031E00087E00E94410F88E00E94410F88E00E9422
:1031F000410F87E00E94410F84E00E94410F84E06C
:103200000E94410F87E00E94410F81E80E94C81090
:1032100080E00E94410FCF91DF910895DF93CF931B
:10322000CDB7DEB727970FB6F894DEBF0FBECDBF80
:1032300089836A834B838B81813009F06FC08981D8
:10324000282F30E03F832E838E819F81813091052E
:1032500049F12E813F81223031052CF48E819F81EE
:10326000009761F0D2C02E813F812230310571F18B
:103270008E819F8183309105E9F1C7C0AAE3B0E058
:10328000EAE3F0E08081482F8A81282F30E081E056
:1032900090E0022E02C0880F991F0A94E2F7842B57
:1032A0008C93B3C0A7E3B0E0E7E3F0E08081482F60
:1032B0008A81282F30E081E090E0022E02C0880F42
:1032C000991F0A94E2F7842B8C939FC0A4E3B0E08B
:1032D000E4E3F0E08081482F8A81282F30E081E00C
:1032E00090E0022E02C0880F991F0A94E2F7842B07
:1032F0008C938BC0A1E3B0E0E1E3F0E08081482F44
:103300008A81282F30E081E090E0022E02C0880FF1
:10331000991F0A94E2F7842B8C9377C08B818823C2
:1033200009F073C08981282F30E03D832C838C8184
:103330009D818130910559F12C813D8122303105EB
:103340002CF48C819D81009769F05FC02C813D81B8
:103350002230310589F18C819D818330910509F4FA
:1033600040C053C0AAE3B0E0EAE3F0E08081482F18
:103370008A81282F30E081E090E0022E02C0880F81
:10338000991F0A94E2F7809584238C933EC0A7E3AB
:10339000B0E0E7E3F0E08081482F8A81282F30E019
:1033A00081E090E0022E02C0880F991F0A94E2F794
:1033B000809584238C9329C0A4E3B0E0E4E3F0E09B
:1033C0008081482F8A81282F30E081E090E0022E12
:1033D00002C0880F991F0A94E2F7809584238C938A
:1033E00014C0A1E3B0E0E1E3F0E08081482F8A81DE
:1033F000282F30E081E090E0022E02C0880F991F54
:103400000A94E2F7809584238C9327960FB6F8945C
:10341000DEBF0FBECDBFCF91DF910895DF93CF9375
:1034200000D000D00F92CDB7DEB78A836B838A813C
:10343000282F30E03D832C834C815D814130510544
:1034400041F18C819D818230910534F42C813D8144
:103450002115310561F052C04C815D81423051052A
:1034600051F18C819D8183309105B9F147C0E9E329
:10347000F0E08081282F30E08B81882F90E0A90137
:1034800002C0559547958A95E2F7CA0181708983F4
:1034900035C0E6E3F0E08081282F30E08B81882F73
:1034A00090E0A90102C0559547958A95E2F7CA01B7
:1034B0008170898323C0E3E3F0E08081282F30E02E
:1034C0008B81882F90E0A90102C0559547958A9578
:1034D000E2F7CA018170898311C0E0E3F0E08081E6
:1034E000282F30E08B81882F90E0A90102C05595EC
:1034F00047958A95E2F7CA018170898389810F9087
:103500000F900F900F900F90CF91DF910895DF9360
:10351000CF93CDB7DEB727970FB6F894DEBF0FBEB7
:10352000CDBF89836A834B838B81882309F074C064
:103530008981282F30E03F832E838E819F818130C7
:10354000910559F12E813F81223031052CF48E8175
:103550009F81009769F0D2C02E813F8122303105D2
:1035600089F18E819F818330910509F440C0C6C0E6
:10357000ABE3B0E0EBE3F0E08081482F8A81282FB5
:1035800030E081E090E0022E02C0880F991F0A947B
:10359000E2F7809584238C93B1C0A8E3B0E0E8E320
:1035A000F0E08081482F8A81282F30E081E090E090
:1035B000022E02C0880F991F0A94E2F78095842397
:1035C0008C939CC0A5E3B0E0E5E3F0E08081482F58
:1035D0008A81282F30E081E090E0022E02C0880F1F
:1035E000991F0A94E2F7809584238C9387C0A2E305
:1035F000B0E0E2E3F0E08081482F8A81282F30E0BC
:1036000081E090E0022E02C0880F991F0A94E2F731
:10361000809584238C9372C08B81813009F06EC0B9
:103620008981282F30E03D832C838C819D818130DE
:10363000910549F12C813D81223031052CF48C819A
:103640009D81009761F05AC02C813D812230310567
:1036500071F18C819D8183309105E9F14FC0ABE31D
:10366000B0E0EBE3F0E08081482F8A81282F30E042
:1036700081E090E0022E02C0880F991F0A94E2F7C1
:10368000842B8C933BC0A8E3B0E0E8E3F0E08081BA
:10369000482F8A81282F30E081E090E0022E02C07E
:1036A000880F991F0A94E2F7842B8C9327C0A5E317
:1036B000B0E0E5E3F0E08081482F8A81282F30E0F8
:1036C00081E090E0022E02C0880F991F0A94E2F771
:1036D000842B8C9313C0A2E3B0E0E2E3F0E080819E
:1036E000482F8A81282F30E081E090E0022E02C02E
:1036F000880F991F0A94E2F7842B8C9327960FB6B4
:10370000F894DEBF0FBECDBFCF91DF910895DF9358
:10371000CF9300D000D0CDB7DEB789836A8389818B
:10372000282F30E03C832B838B819C818130910555
:10373000D1F02B813C81223031052CF48B819C818E
:10374000009761F01EC02B813C812230310581F051
:103750008B819C818330910581F013C0EAE3F0E016
:103760008A8180830EC0E7E3F0E08A81808309C00C
:10377000E4E3F0E08A81808304C0E1E3F0E08A8141
:1037800080830F900F900F900F90CF91DF9108954D
:10379000DF93CF9300D000D0CDB7DEB789836A83A3
:1037A0008981282F30E03C832B838B819C81813061
:1037B0009105D1F02B813C81223031052CF48B8195
:1037C0009C81009761F01EC02B813C812230310525
:1037D00081F08B819C818330910581F013C0EBE3F4
:1037E000F0E08A8180830EC0E8E3F0E08A81808384
:1037F00009C0E5E3F0E08A81808304C0E2E3F0E001
:103800008A8180830F900F900F900F90CF91DF915E
:103810000895DF93CF9300D000D0CDB7DEB7898372
:103820006A838981282F30E03C832B838B819C81A4
:103830008130910549F12B813C81223031052CF4F6
:103840008B819C81009761F05AC02B813C81223092
:10385000310571F18B819C8183309105E9F14FC075
:10386000ABE3B0E0EBE3F0E08081482F8A81282FC2
:1038700030E081E090E0022E02C0880F991F0A9488
:10388000E2F784278C933BC0A8E3B0E0E8E3F0E0E4
:103890008081482F8A81282F30E081E090E0022E3D
:1038A00002C0880F991F0A94E2F784278C9327C0DF
:1038B000A5E3B0E0E5E3F0E08081482F8A81282F7E
:1038C00030E081E090E0022E02C0880F991F0A9438
:1038D000E2F784278C9313C0A2E3B0E0E2E3F0E0C8
:1038E0008081482F8A81282F30E081E090E0022EED
:1038F00002C0880F991F0A94E2F784278C930F90D7
:103900000F900F900F90CF91DF910895629FD0019B
:10391000739FF001829FE00DF11D649FE00DF11D8A
:10392000929FF00D839FF00D749FF00D659FF00D39
:103930009927729FB00DE11DF91F639FB00DE11D26
:10394000F91FBD01CF0111240895A1E21A2EAA1B6F
:10395000BB1BFD010DC0AA1FBB1FEE1FFF1FA2173F
:10396000B307E407F50720F0A21BB30BE40BF50B3C
:10397000661F771F881F991F1A9469F760957095C5
:10398000809590959B01AC01BD01CF0108952F92C8
:103990003F924F925F926F927F928F929F92AF92DF
:1039A000BF92CF92DF92EF92FF920F931F93CF932C
:1039B000DF93CDB7DEB7CA1BDB0B0FB6F894DEBFC3
:1039C0000FBECDBF09942A88398848885F846E84E9
:1039D0007D848C849B84AA84B984C884DF80EE8033
:1039E000FD800C811B81AA81B981CE0FD11D0FB63C
:1039F000F894DEBF0FBECDBFED010895F894FFCF60
:103A00004552524F522044697669646520427930AC
:0A3A100000000000000000000000AC
:00000001FF
